{
  "_format": "hh-sol-artifact-1",
  "contractName": "CWJ",
  "sourceName": "contracts/CWJ.sol",
  "abi": [
    {
      "inputs": [
        {
          "internalType": "string",
          "name": "_initBaseURI",
          "type": "string"
        }
      ],
      "stateMutability": "nonpayable",
      "type": "constructor"
    },
    {
      "inputs": [],
      "name": "ApprovalCallerNotOwnerNorApproved",
      "type": "error"
    },
    {
      "inputs": [],
      "name": "ApprovalQueryForNonexistentToken",
      "type": "error"
    },
    {
      "inputs": [],
      "name": "BalanceQueryForZeroAddress",
      "type": "error"
    },
    {
      "inputs": [],
      "name": "MintERC2309QuantityExceedsLimit",
      "type": "error"
    },
    {
      "inputs": [],
      "name": "MintToZeroAddress",
      "type": "error"
    },
    {
      "inputs": [],
      "name": "MintZeroQuantity",
      "type": "error"
    },
    {
      "inputs": [],
      "name": "OwnerQueryForNonexistentToken",
      "type": "error"
    },
    {
      "inputs": [],
      "name": "OwnershipNotInitializedForExtraData",
      "type": "error"
    },
    {
      "inputs": [],
      "name": "TransferCallerNotOwnerNorApproved",
      "type": "error"
    },
    {
      "inputs": [],
      "name": "TransferFromIncorrectOwner",
      "type": "error"
    },
    {
      "inputs": [],
      "name": "TransferToNonERC721ReceiverImplementer",
      "type": "error"
    },
    {
      "inputs": [],
      "name": "TransferToZeroAddress",
      "type": "error"
    },
    {
      "inputs": [],
      "name": "URIQueryForNonexistentToken",
      "type": "error"
    },
    {
      "anonymous": false,
      "inputs": [
        {
          "indexed": true,
          "internalType": "address",
          "name": "owner",
          "type": "address"
        },
        {
          "indexed": true,
          "internalType": "address",
          "name": "approved",
          "type": "address"
        },
        {
          "indexed": true,
          "internalType": "uint256",
          "name": "tokenId",
          "type": "uint256"
        }
      ],
      "name": "Approval",
      "type": "event"
    },
    {
      "anonymous": false,
      "inputs": [
        {
          "indexed": true,
          "internalType": "address",
          "name": "owner",
          "type": "address"
        },
        {
          "indexed": true,
          "internalType": "address",
          "name": "operator",
          "type": "address"
        },
        {
          "indexed": false,
          "internalType": "bool",
          "name": "approved",
          "type": "bool"
        }
      ],
      "name": "ApprovalForAll",
      "type": "event"
    },
    {
      "anonymous": false,
      "inputs": [
        {
          "indexed": true,
          "internalType": "uint256",
          "name": "fromTokenId",
          "type": "uint256"
        },
        {
          "indexed": false,
          "internalType": "uint256",
          "name": "toTokenId",
          "type": "uint256"
        },
        {
          "indexed": true,
          "internalType": "address",
          "name": "from",
          "type": "address"
        },
        {
          "indexed": true,
          "internalType": "address",
          "name": "to",
          "type": "address"
        }
      ],
      "name": "ConsecutiveTransfer",
      "type": "event"
    },
    {
      "anonymous": false,
      "inputs": [
        {
          "indexed": true,
          "internalType": "address",
          "name": "previousOwner",
          "type": "address"
        },
        {
          "indexed": true,
          "internalType": "address",
          "name": "newOwner",
          "type": "address"
        }
      ],
      "name": "OwnershipTransferred",
      "type": "event"
    },
    {
      "anonymous": false,
      "inputs": [
        {
          "indexed": true,
          "internalType": "address",
          "name": "from",
          "type": "address"
        },
        {
          "indexed": true,
          "internalType": "address",
          "name": "to",
          "type": "address"
        },
        {
          "indexed": true,
          "internalType": "uint256",
          "name": "tokenId",
          "type": "uint256"
        }
      ],
      "name": "Transfer",
      "type": "event"
    },
    {
      "inputs": [],
      "name": "MaxPerWallet_WlFreeMint",
      "outputs": [
        {
          "internalType": "uint256",
          "name": "",
          "type": "uint256"
        }
      ],
      "stateMutability": "view",
      "type": "function"
    },
    {
      "inputs": [],
      "name": "MaxperWallet_PreSale",
      "outputs": [
        {
          "internalType": "uint256",
          "name": "",
          "type": "uint256"
        }
      ],
      "stateMutability": "view",
      "type": "function"
    },
    {
      "inputs": [
        {
          "internalType": "uint256",
          "name": "tokens",
          "type": "uint256"
        },
        {
          "internalType": "bytes32[]",
          "name": "merkleProof",
          "type": "bytes32[]"
        }
      ],
      "name": "PreSaleMint",
      "outputs": [],
      "stateMutability": "payable",
      "type": "function"
    },
    {
      "inputs": [],
      "name": "PreSale_Live",
      "outputs": [
        {
          "internalType": "bool",
          "name": "",
          "type": "bool"
        }
      ],
      "stateMutability": "view",
      "type": "function"
    },
    {
      "inputs": [],
      "name": "WlFreemint_Live",
      "outputs": [
        {
          "internalType": "bool",
          "name": "",
          "type": "bool"
        }
      ],
      "stateMutability": "view",
      "type": "function"
    },
    {
      "inputs": [],
      "name": "WlFreemint_Supply",
      "outputs": [
        {
          "internalType": "uint256",
          "name": "",
          "type": "uint256"
        }
      ],
      "stateMutability": "view",
      "type": "function"
    },
    {
      "inputs": [
        {
          "internalType": "address",
          "name": "to",
          "type": "address"
        },
        {
          "internalType": "uint256",
          "name": "tokenId",
          "type": "uint256"
        }
      ],
      "name": "approve",
      "outputs": [],
      "stateMutability": "payable",
      "type": "function"
    },
    {
      "inputs": [
        {
          "internalType": "address",
          "name": "owner",
          "type": "address"
        }
      ],
      "name": "balanceOf",
      "outputs": [
        {
          "internalType": "uint256",
          "name": "",
          "type": "uint256"
        }
      ],
      "stateMutability": "view",
      "type": "function"
    },
    {
      "inputs": [],
      "name": "baseExtension",
      "outputs": [
        {
          "internalType": "string",
          "name": "",
          "type": "string"
        }
      ],
      "stateMutability": "view",
      "type": "function"
    },
    {
      "inputs": [],
      "name": "baseURI",
      "outputs": [
        {
          "internalType": "string",
          "name": "",
          "type": "string"
        }
      ],
      "stateMutability": "view",
      "type": "function"
    },
    {
      "inputs": [
        {
          "internalType": "uint256",
          "name": "tokenId",
          "type": "uint256"
        }
      ],
      "name": "getApproved",
      "outputs": [
        {
          "internalType": "address",
          "name": "",
          "type": "address"
        }
      ],
      "stateMutability": "view",
      "type": "function"
    },
    {
      "inputs": [
        {
          "internalType": "address",
          "name": "owner",
          "type": "address"
        },
        {
          "internalType": "address",
          "name": "operator",
          "type": "address"
        }
      ],
      "name": "isApprovedForAll",
      "outputs": [
        {
          "internalType": "bool",
          "name": "",
          "type": "bool"
        }
      ],
      "stateMutability": "view",
      "type": "function"
    },
    {
      "inputs": [],
      "name": "maxSupply",
      "outputs": [
        {
          "internalType": "uint256",
          "name": "",
          "type": "uint256"
        }
      ],
      "stateMutability": "view",
      "type": "function"
    },
    {
      "inputs": [],
      "name": "merkleRoot",
      "outputs": [
        {
          "internalType": "bytes32",
          "name": "",
          "type": "bytes32"
        }
      ],
      "stateMutability": "view",
      "type": "function"
    },
    {
      "inputs": [],
      "name": "name",
      "outputs": [
        {
          "internalType": "string",
          "name": "",
          "type": "string"
        }
      ],
      "stateMutability": "view",
      "type": "function"
    },
    {
      "inputs": [],
      "name": "notRevealedUri",
      "outputs": [
        {
          "internalType": "string",
          "name": "",
          "type": "string"
        }
      ],
      "stateMutability": "view",
      "type": "function"
    },
    {
      "inputs": [
        {
          "internalType": "address",
          "name": "owner",
          "type": "address"
        }
      ],
      "name": "numberMinted",
      "outputs": [
        {
          "internalType": "uint256",
          "name": "",
          "type": "uint256"
        }
      ],
      "stateMutability": "view",
      "type": "function"
    },
    {
      "inputs": [],
      "name": "owner",
      "outputs": [
        {
          "internalType": "address",
          "name": "",
          "type": "address"
        }
      ],
      "stateMutability": "view",
      "type": "function"
    },
    {
      "inputs": [
        {
          "internalType": "uint256",
          "name": "_mintAmount",
          "type": "uint256"
        },
        {
          "internalType": "address",
          "name": "destination",
          "type": "address"
        }
      ],
      "name": "ownerMint",
      "outputs": [],
      "stateMutability": "nonpayable",
      "type": "function"
    },
    {
      "inputs": [
        {
          "internalType": "uint256",
          "name": "tokenId",
          "type": "uint256"
        }
      ],
      "name": "ownerOf",
      "outputs": [
        {
          "internalType": "address",
          "name": "",
          "type": "address"
        }
      ],
      "stateMutability": "view",
      "type": "function"
    },
    {
      "inputs": [
        {
          "internalType": "bool",
          "name": "_state",
          "type": "bool"
        }
      ],
      "name": "pause",
      "outputs": [],
      "stateMutability": "nonpayable",
      "type": "function"
    },
    {
      "inputs": [],
      "name": "paused",
      "outputs": [
        {
          "internalType": "bool",
          "name": "",
          "type": "bool"
        }
      ],
      "stateMutability": "view",
      "type": "function"
    },
    {
      "inputs": [],
      "name": "preSale_Cost",
      "outputs": [
        {
          "internalType": "uint256",
          "name": "",
          "type": "uint256"
        }
      ],
      "stateMutability": "view",
      "type": "function"
    },
    {
      "inputs": [],
      "name": "preSale_Supply",
      "outputs": [
        {
          "internalType": "uint256",
          "name": "",
          "type": "uint256"
        }
      ],
      "stateMutability": "view",
      "type": "function"
    },
    {
      "inputs": [
        {
          "internalType": "uint256",
          "name": "tokens",
          "type": "uint256"
        }
      ],
      "name": "publicSaleMint",
      "outputs": [],
      "stateMutability": "payable",
      "type": "function"
    },
    {
      "inputs": [],
      "name": "publicSale_Cost",
      "outputs": [
        {
          "internalType": "uint256",
          "name": "",
          "type": "uint256"
        }
      ],
      "stateMutability": "view",
      "type": "function"
    },
    {
      "inputs": [],
      "name": "publicSale_Live",
      "outputs": [
        {
          "internalType": "bool",
          "name": "",
          "type": "bool"
        }
      ],
      "stateMutability": "view",
      "type": "function"
    },
    {
      "inputs": [],
      "name": "publicSale_Supply",
      "outputs": [
        {
          "internalType": "uint256",
          "name": "",
          "type": "uint256"
        }
      ],
      "stateMutability": "view",
      "type": "function"
    },
    {
      "inputs": [],
      "name": "renounceOwnership",
      "outputs": [],
      "stateMutability": "nonpayable",
      "type": "function"
    },
    {
      "inputs": [
        {
          "internalType": "bool",
          "name": "_state",
          "type": "bool"
        }
      ],
      "name": "reveal",
      "outputs": [],
      "stateMutability": "nonpayable",
      "type": "function"
    },
    {
      "inputs": [],
      "name": "revealed",
      "outputs": [
        {
          "internalType": "bool",
          "name": "",
          "type": "bool"
        }
      ],
      "stateMutability": "view",
      "type": "function"
    },
    {
      "inputs": [
        {
          "internalType": "address",
          "name": "from",
          "type": "address"
        },
        {
          "internalType": "address",
          "name": "to",
          "type": "address"
        },
        {
          "internalType": "uint256",
          "name": "tokenId",
          "type": "uint256"
        }
      ],
      "name": "safeTransferFrom",
      "outputs": [],
      "stateMutability": "payable",
      "type": "function"
    },
    {
      "inputs": [
        {
          "internalType": "address",
          "name": "from",
          "type": "address"
        },
        {
          "internalType": "address",
          "name": "to",
          "type": "address"
        },
        {
          "internalType": "uint256",
          "name": "tokenId",
          "type": "uint256"
        },
        {
          "internalType": "bytes",
          "name": "_data",
          "type": "bytes"
        }
      ],
      "name": "safeTransferFrom",
      "outputs": [],
      "stateMutability": "payable",
      "type": "function"
    },
    {
      "inputs": [
        {
          "internalType": "address",
          "name": "operator",
          "type": "address"
        },
        {
          "internalType": "bool",
          "name": "approved",
          "type": "bool"
        }
      ],
      "name": "setApprovalForAll",
      "outputs": [],
      "stateMutability": "nonpayable",
      "type": "function"
    },
    {
      "inputs": [
        {
          "internalType": "string",
          "name": "_newBaseExtension",
          "type": "string"
        }
      ],
      "name": "setBaseExtension",
      "outputs": [],
      "stateMutability": "nonpayable",
      "type": "function"
    },
    {
      "inputs": [
        {
          "internalType": "string",
          "name": "_newBaseURI",
          "type": "string"
        }
      ],
      "name": "setBaseURI",
      "outputs": [],
      "stateMutability": "nonpayable",
      "type": "function"
    },
    {
      "inputs": [
        {
          "internalType": "uint256",
          "name": "_newsupply",
          "type": "uint256"
        }
      ],
      "name": "setMaxsupply",
      "outputs": [],
      "stateMutability": "nonpayable",
      "type": "function"
    },
    {
      "inputs": [
        {
          "internalType": "bytes32",
          "name": "_merkleRoot",
          "type": "bytes32"
        }
      ],
      "name": "setMerkleRoot",
      "outputs": [],
      "stateMutability": "nonpayable",
      "type": "function"
    },
    {
      "inputs": [
        {
          "internalType": "string",
          "name": "_notRevealedURI",
          "type": "string"
        }
      ],
      "name": "setNotRevealedURI",
      "outputs": [],
      "stateMutability": "nonpayable",
      "type": "function"
    },
    {
      "inputs": [
        {
          "internalType": "uint256",
          "name": "_limit",
          "type": "uint256"
        }
      ],
      "name": "set_MaxPerWallet_WlFreeMint",
      "outputs": [],
      "stateMutability": "nonpayable",
      "type": "function"
    },
    {
      "inputs": [
        {
          "internalType": "uint256",
          "name": "_limit",
          "type": "uint256"
        }
      ],
      "name": "set_MaxperWallet_PreSale",
      "outputs": [],
      "stateMutability": "nonpayable",
      "type": "function"
    },
    {
      "inputs": [
        {
          "internalType": "uint256",
          "name": "_newCost",
          "type": "uint256"
        }
      ],
      "name": "set_PreSale_Cost",
      "outputs": [],
      "stateMutability": "nonpayable",
      "type": "function"
    },
    {
      "inputs": [
        {
          "internalType": "uint256",
          "name": "_newsupply",
          "type": "uint256"
        }
      ],
      "name": "set_PreSale_Supply",
      "outputs": [],
      "stateMutability": "nonpayable",
      "type": "function"
    },
    {
      "inputs": [
        {
          "internalType": "uint256",
          "name": "_newsupply",
          "type": "uint256"
        }
      ],
      "name": "set_PublicSale_Supply",
      "outputs": [],
      "stateMutability": "nonpayable",
      "type": "function"
    },
    {
      "inputs": [
        {
          "internalType": "uint256",
          "name": "_newsupply",
          "type": "uint256"
        }
      ],
      "name": "set_WlFreemint_Supply",
      "outputs": [],
      "stateMutability": "nonpayable",
      "type": "function"
    },
    {
      "inputs": [
        {
          "internalType": "uint256",
          "name": "_newCost",
          "type": "uint256"
        }
      ],
      "name": "set_publicSale_Cost",
      "outputs": [],
      "stateMutability": "nonpayable",
      "type": "function"
    },
    {
      "inputs": [
        {
          "internalType": "bytes4",
          "name": "interfaceId",
          "type": "bytes4"
        }
      ],
      "name": "supportsInterface",
      "outputs": [
        {
          "internalType": "bool",
          "name": "",
          "type": "bool"
        }
      ],
      "stateMutability": "view",
      "type": "function"
    },
    {
      "inputs": [],
      "name": "symbol",
      "outputs": [
        {
          "internalType": "string",
          "name": "",
          "type": "string"
        }
      ],
      "stateMutability": "view",
      "type": "function"
    },
    {
      "inputs": [
        {
          "internalType": "bool",
          "name": "_state",
          "type": "bool"
        }
      ],
      "name": "toggle_PreSale_Live",
      "outputs": [],
      "stateMutability": "nonpayable",
      "type": "function"
    },
    {
      "inputs": [
        {
          "internalType": "bool",
          "name": "_state",
          "type": "bool"
        }
      ],
      "name": "toggle_WlFreemint_Live",
      "outputs": [],
      "stateMutability": "nonpayable",
      "type": "function"
    },
    {
      "inputs": [
        {
          "internalType": "bool",
          "name": "_state",
          "type": "bool"
        }
      ],
      "name": "toggle_publicSale_Live",
      "outputs": [],
      "stateMutability": "nonpayable",
      "type": "function"
    },
    {
      "inputs": [
        {
          "internalType": "uint256",
          "name": "tokenId",
          "type": "uint256"
        }
      ],
      "name": "tokenURI",
      "outputs": [
        {
          "internalType": "string",
          "name": "",
          "type": "string"
        }
      ],
      "stateMutability": "view",
      "type": "function"
    },
    {
      "inputs": [],
      "name": "totalSupply",
      "outputs": [
        {
          "internalType": "uint256",
          "name": "",
          "type": "uint256"
        }
      ],
      "stateMutability": "view",
      "type": "function"
    },
    {
      "inputs": [
        {
          "internalType": "address",
          "name": "from",
          "type": "address"
        },
        {
          "internalType": "address",
          "name": "to",
          "type": "address"
        },
        {
          "internalType": "uint256",
          "name": "tokenId",
          "type": "uint256"
        }
      ],
      "name": "transferFrom",
      "outputs": [],
      "stateMutability": "payable",
      "type": "function"
    },
    {
      "inputs": [
        {
          "internalType": "address",
          "name": "newOwner",
          "type": "address"
        }
      ],
      "name": "transferOwnership",
      "outputs": [],
      "stateMutability": "nonpayable",
      "type": "function"
    },
    {
      "inputs": [
        {
          "internalType": "uint256",
          "name": "tokens",
          "type": "uint256"
        },
        {
          "internalType": "bytes32[]",
          "name": "merkleProof",
          "type": "bytes32[]"
        }
      ],
      "name": "whitelistedFreeMint",
      "outputs": [],
      "stateMutability": "nonpayable",
      "type": "function"
    },
    {
      "inputs": [],
      "name": "withdraw",
      "outputs": [],
      "stateMutability": "payable",
      "type": "function"
    }
  ],
  "bytecode": "0x60c06040526005608081905264173539b7b760d91b60a09081526200002891600b919062000212565b5067015181ff25a98000600d5567011c37937e080000600e55610131600f5560146010819055602860115560c86012556003601355600190556015805464ffffffffff191661010017905560006016553480156200008557600080fd5b5060405162002d1c38038062002d1c833981016040819052620000a891620002ce565b6040805180820182526011815270436f666665652057697468204a6573757360781b60208083019182528351808501909452600384526221aba560e91b908401528151919291620000fc9160029162000212565b5080516200011290600390602084019062000212565b5050600a6000555062000125336200013c565b600160095562000135816200018e565b50620003e7565b600880546001600160a01b038381166001600160a01b0319831681179093556040519116919082907f8be0079c531659141344cd1fd0a4f28419497f9722a3daafe3b4186f6b6457e090600090a35050565b62000198620001b1565b8051620001ad90600a90602084019062000212565b5050565b6008546001600160a01b03163314620002105760405162461bcd60e51b815260206004820181905260248201527f4f776e61626c653a2063616c6c6572206973206e6f7420746865206f776e6572604482015260640160405180910390fd5b565b8280546200022090620003aa565b90600052602060002090601f0160209004810192826200024457600085556200028f565b82601f106200025f57805160ff19168380011785556200028f565b828001600101855582156200028f579182015b828111156200028f57825182559160200191906001019062000272565b506200029d929150620002a1565b5090565b5b808211156200029d5760008155600101620002a2565b634e487b7160e01b600052604160045260246000fd5b60006020808385031215620002e257600080fd5b82516001600160401b0380821115620002fa57600080fd5b818501915085601f8301126200030f57600080fd5b815181811115620003245762000324620002b8565b604051601f8201601f19908116603f011681019083821181831017156200034f576200034f620002b8565b8160405282815288868487010111156200036857600080fd5b600093505b828410156200038c57848401860151818501870152928501926200036d565b828411156200039e5760008684830101525b98975050505050505050565b600181811c90821680620003bf57607f821691505b60208210811415620003e157634e487b7160e01b600052602260045260246000fd5b50919050565b61292580620003f76000396000f3fe6080604052600436106103755760003560e01c80636a3039cd116101d1578063c0fb514e11610102578063da3ef23f116100a0578063ea0e229f1161006f578063ea0e229f1461097a578063eddd240a1461099a578063f2c4ce1e146109ba578063f2fde38b146109da57600080fd5b8063da3ef23f146108d1578063dc33e681146108f1578063e317ca7914610911578063e985e9c51461093157600080fd5b8063cf7a7510116100dc578063cf7a75101461085a578063d47ad6641461087a578063d52c57e01461089b578063d5abeb01146108bb57600080fd5b8063c0fb514e1461080f578063c668286214610825578063c87b56dd1461083a57600080fd5b806391607d901161016f5780639651b516116101495780639651b516146107a9578063a22cb465146107c9578063b3ab66b0146107e9578063b88d4fde146107fc57600080fd5b806391607d901461075e578063940cd05b1461077457806395d89b411461079457600080fd5b8063715018a6116101ab578063715018a6146106f55780637cb647591461070a5780638202eaf61461072a5780638da5cb5b1461074057600080fd5b80636a3039cd146106aa5780636c0360eb146106c057806370a08231146106d557600080fd5b806323b872dd116102ab5780634a9877be1161024957806355f804b31161022357806355f804b3146106305780635c975abb146106505780636352211e1461066a578063648eb1091461068a57600080fd5b80634a9877be146105d157806351830227146105f1578063544912b41461061057600080fd5b806331c16a241161028557806331c16a24146105765780633ccfd60b146105965780633ee03f881461059e57806342842e0e146105be57600080fd5b806323b872dd1461053a57806326982a911461054d5780632eb4a7ab1461056057600080fd5b8063081c8c44116103185780630b47916e116102f25780630b47916e146104c3578063149835a0146104e35780631641bb0e1461050357806318160ddd1461052557600080fd5b8063081c8c441461048557806308714f9b1461049a578063095ea7b3146104b057600080fd5b8063031ec47311610354578063031ec473146103f157806305bc50721461041557806306fdde031461042b578063081812fc1461044d57600080fd5b8062bc80611461037a57806301ffc9a71461039c57806302329a29146103d1575b600080fd5b34801561038657600080fd5b5061039a6103953660046122b7565b6109fa565b005b3480156103a857600080fd5b506103bc6103b73660046122e6565b610a07565b60405190151581526020015b60405180910390f35b3480156103dd57600080fd5b5061039a6103ec366004612318565b610a59565b3480156103fd57600080fd5b5061040760115481565b6040519081526020016103c8565b34801561042157600080fd5b50610407600e5481565b34801561043757600080fd5b50610440610a74565b6040516103c8919061238b565b34801561045957600080fd5b5061046d6104683660046122b7565b610b06565b6040516001600160a01b0390911681526020016103c8565b34801561049157600080fd5b50610440610b4a565b3480156104a657600080fd5b5061040760145481565b61039a6104be3660046123b5565b610bd8565b3480156104cf57600080fd5b5061039a6104de3660046122b7565b610c78565b3480156104ef57600080fd5b5061039a6104fe3660046122b7565b610c85565b34801561050f57600080fd5b506015546103bc90640100000000900460ff1681565b34801561053157600080fd5b50610407610c92565b61039a6105483660046123df565b610ca0565b61039a61055b36600461241b565b610e31565b34801561056c57600080fd5b5061040760165481565b34801561058257600080fd5b5061039a6105913660046122b7565b6111a6565b61039a6111b3565b3480156105aa57600080fd5b5061039a6105b93660046122b7565b611225565b61039a6105cc3660046123df565b611232565b3480156105dd57600080fd5b5061039a6105ec3660046122b7565b61124d565b3480156105fd57600080fd5b506015546103bc90610100900460ff1681565b34801561061c57600080fd5b5061039a61062b366004612318565b61125a565b34801561063c57600080fd5b5061039a61064b366004612526565b611282565b34801561065c57600080fd5b506015546103bc9060ff1681565b34801561067657600080fd5b5061046d6106853660046122b7565b6112a1565b34801561069657600080fd5b5061039a6106a5366004612318565b6112ac565b3480156106b657600080fd5b5061040760125481565b3480156106cc57600080fd5b506104406112d0565b3480156106e157600080fd5b506104076106f036600461256f565b6112dd565b34801561070157600080fd5b5061039a61132c565b34801561071657600080fd5b5061039a6107253660046122b7565b61133e565b34801561073657600080fd5b5061040760105481565b34801561074c57600080fd5b506008546001600160a01b031661046d565b34801561076a57600080fd5b5061040760135481565b34801561078057600080fd5b5061039a61078f366004612318565b61134b565b3480156107a057600080fd5b5061044061136d565b3480156107b557600080fd5b506015546103bc9062010000900460ff1681565b3480156107d557600080fd5b5061039a6107e436600461258a565b61137c565b61039a6107f73660046122b7565b6113e8565b61039a61080a3660046125bd565b6115c1565b34801561081b57600080fd5b50610407600d5481565b34801561083157600080fd5b5061044061160b565b34801561084657600080fd5b506104406108553660046122b7565b611618565b34801561086657600080fd5b5061039a6108753660046122b7565b611788565b34801561088657600080fd5b506015546103bc906301000000900460ff1681565b3480156108a757600080fd5b5061039a6108b6366004612639565b611795565b3480156108c757600080fd5b50610407600f5481565b3480156108dd57600080fd5b5061039a6108ec366004612526565b61183b565b3480156108fd57600080fd5b5061040761090c36600461256f565b611856565b34801561091d57600080fd5b5061039a61092c3660046122b7565b611881565b34801561093d57600080fd5b506103bc61094c36600461265c565b6001600160a01b03918216600090815260076020908152604080832093909416825291909152205460ff1690565b34801561098657600080fd5b5061039a610995366004612318565b61188e565b3480156109a657600080fd5b5061039a6109b536600461241b565b6118b4565b3480156109c657600080fd5b5061039a6109d5366004612526565b611b68565b3480156109e657600080fd5b5061039a6109f536600461256f565b611b83565b610a02611bf9565b600d55565b60006301ffc9a760e01b6001600160e01b031983161480610a3857506380ac58cd60e01b6001600160e01b03198316145b80610a535750635b5e139f60e01b6001600160e01b03198316145b92915050565b610a61611bf9565b6015805460ff1916911515919091179055565b606060028054610a8390612686565b80601f0160208091040260200160405190810160405280929190818152602001828054610aaf90612686565b8015610afc5780601f10610ad157610100808354040283529160200191610afc565b820191906000526020600020905b815481529060010190602001808311610adf57829003601f168201915b5050505050905090565b6000610b1182611c53565b610b2e576040516333d1c03960e21b815260040160405180910390fd5b506000908152600660205260409020546001600160a01b031690565b600c8054610b5790612686565b80601f0160208091040260200160405190810160405280929190818152602001828054610b8390612686565b8015610bd05780601f10610ba557610100808354040283529160200191610bd0565b820191906000526020600020905b815481529060010190602001808311610bb357829003601f168201915b505050505081565b6000610be3826112a1565b9050336001600160a01b03821614610c1c57610bff813361094c565b610c1c576040516367d9dca160e11b815260040160405180910390fd5b60008281526006602052604080822080546001600160a01b0319166001600160a01b0387811691821790925591518593918516917f8c5be1e5ebec7d5bd14f71427d1e84f3dd0314c0f7b2291e5b200ac8c7c3b92591a4505050565b610c80611bf9565b601455565b610c8d611bf9565b600f55565b600154600054036009190190565b6000610cab82611c88565b9050836001600160a01b0316816001600160a01b031614610cde5760405162a1148160e81b815260040160405180910390fd5b60008281526006602052604090208054338082146001600160a01b03881690911417610d2b57610d0e863361094c565b610d2b57604051632ce44b5f60e11b815260040160405180910390fd5b6001600160a01b038516610d5257604051633a954ecd60e21b815260040160405180910390fd5b8015610d5d57600082555b6001600160a01b038681166000908152600560205260408082208054600019019055918716808252919020805460010190554260a01b17600160e11b17600085815260046020526040902055600160e11b8316610de85760018401600081815260046020526040902054610de6576000548114610de65760008181526004602052604090208490555b505b83856001600160a01b0316876001600160a01b03167fddf252ad1be2c89b69c2b068fc378daa952ba7f163c4a11628f55a4df523b3ef60405160405180910390a4505050505050565b610e39611cf1565b60155460ff1615610e655760405162461bcd60e51b8152600401610e5c906126c1565b60405180910390fd5b60155462010000900460ff16610ebd5760405162461bcd60e51b815260206004820152601760248201527f73616c65204861736e27742073746172746564207965740000000000000000006044820152606401610e5c565b610f33828280806020026020016040519081016040528093929190818152602001838360200280828437600092019190915250506016546040516bffffffffffffffffffffffff193360601b16602082015290925060340190505b60405160208183030381529060405280519060200120611d4b565b610f7f5760405162461bcd60e51b815260206004820152601d60248201527f20596f7520617265206e6f7420696e207468652077686974656c6973740000006044820152606401610e5c565b6000610f89610c92565b905060135484610fc2610f993390565b6001600160a01b03166000908152600560205260409081902054901c67ffffffffffffffff1690565b610fcc919061270e565b111561101a5760405162461bcd60e51b815260206004820152601b60248201527f4d6178204e4654205065722057616c6c657420657863656564656400000000006044820152606401610e5c565b6000841161103a5760405162461bcd60e51b8152600401610e5c90612726565b600f54611047858361270e565b11156110655760405162461bcd60e51b8152600401610e5c9061275d565b61107a610f996008546001600160a01b031690565b60105460115461108a919061270e565b611094919061270e565b61109e858361270e565b11156110ec5760405162461bcd60e51b815260206004820152601a60248201527f70726553616c6520737570706c792072656163686564206d61780000000000006044820152606401610e5c565b6013548411156111395760405162461bcd60e51b81526020600482015260186024820152771b585e081b5a5b9d081c195c88151e08195e18d95959195960421b6044820152606401610e5c565b83600e546111479190612781565b34101561118c5760405162461bcd60e51b81526020600482015260136024820152721b9bdd08195b9bdd59da08195d1a081cd95b9d606a1b6044820152606401610e5c565b6111963385611d61565b506111a16001600955565b505050565b6111ae611bf9565b601155565b6111bb611bf9565b6111c3611cf1565b604051600090339047908381818185875af1925050503d8060008114611205576040519150601f19603f3d011682016040523d82523d6000602084013e61120a565b606091505b505090508061121857600080fd5b506112236001600955565b565b61122d611bf9565b601055565b6111a1838383604051806020016040528060008152506115c1565b611255611bf9565b600e55565b611262611bf9565b601580549115156401000000000264ff0000000019909216919091179055565b61128a611bf9565b805161129d90600a90602084019061221e565b5050565b6000610a5382611c88565b6112b4611bf9565b60158054911515620100000262ff000019909216919091179055565b600a8054610b5790612686565b60006001600160a01b038216611306576040516323d3ad8160e21b815260040160405180910390fd5b506001600160a01b031660009081526005602052604090205467ffffffffffffffff1690565b611334611bf9565b6112236000611d7b565b611346611bf9565b601655565b611353611bf9565b601580549115156101000261ff0019909216919091179055565b606060038054610a8390612686565b3360008181526007602090815260408083206001600160a01b03871680855290835292819020805460ff191686151590811790915590519081529192917f17307eab39ab6107e8899845ad3d59bd9653f200f220920489ca2b5937696c31910160405180910390a35050565b6113f0611cf1565b60155460ff16156114135760405162461bcd60e51b8152600401610e5c906126c1565b6015546301000000900460ff1661146c5760405162461bcd60e51b815260206004820152601760248201527f53616c65204861736e27742073746172746564207965740000000000000000006044820152606401610e5c565b6000611476610c92565b9050600082116114985760405162461bcd60e51b8152600401610e5c90612726565b600f546114a5838361270e565b11156114c35760405162461bcd60e51b8152600401610e5c9061275d565b6114d8610f996008546001600160a01b031690565b6010546011546012546114eb919061270e565b6114f5919061270e565b6114ff919061270e565b611509838361270e565b11156115575760405162461bcd60e51b815260206004820152601d60248201527f7075626c696353616c6520737570706c792072656163686564206d61780000006044820152606401610e5c565b81600d546115659190612781565b3410156115a95760405162461bcd60e51b8152602060048201526012602482015271696e73756666696369656e742066756e647360701b6044820152606401610e5c565b6115b33383611d61565b506115be6001600955565b50565b6115cc848484610ca0565b6001600160a01b0383163b15611605576115e884848484611dcd565b611605576040516368d2bf6b60e11b815260040160405180910390fd5b50505050565b600b8054610b5790612686565b606061162382611c53565b6116885760405162461bcd60e51b815260206004820152603060248201527f455243373231414d657461646174613a2055524920717565727920666f72206e60448201526f37b732bc34b9ba32b73a103a37b5b2b760811b6064820152608401610e5c565b601554610100900460ff1661172957600c80546116a490612686565b80601f01602080910402602001604051908101604052809291908181526020018280546116d090612686565b801561171d5780601f106116f25761010080835404028352916020019161171d565b820191906000526020600020905b81548152906001019060200180831161170057829003601f168201915b50505050509050919050565b6000611733611ec5565b905060008151116117535760405180602001604052806000815250611781565b8061175d84611ed4565b600b604051602001611771939291906127a0565b6040516020818303038152906040525b9392505050565b611790611bf9565b601255565b61179d611bf9565b6117a5611cf1565b600082116117c55760405162461bcd60e51b8152600401610e5c90612726565b60006117cf610c92565b600f549091506117df848361270e565b11156118265760405162461bcd60e51b81526020600482015260166024820152751b585e08139195081b1a5b5a5d08195e18d95959195960521b6044820152606401610e5c565b6118308284611d61565b5061129d6001600955565b611843611bf9565b805161129d90600b90602084019061221e565b6001600160a01b0381166000908152600560205260408082205467ffffffffffffffff911c16610a53565b611889611bf9565b601355565b611896611bf9565b6015805491151563010000000263ff00000019909216919091179055565b6118bc611cf1565b60155460ff16156118df5760405162461bcd60e51b8152600401610e5c906126c1565b601554640100000000900460ff166119395760405162461bcd60e51b815260206004820152601760248201527f6d696e74204861736e27742073746172746564207965740000000000000000006044820152606401610e5c565b611998828280806020026020016040519081016040528093929190818152602001838360200280828437600092019190915250506016546040516bffffffffffffffffffffffff193360601b1660208201529092506034019050610f18565b6119e45760405162461bcd60e51b815260206004820152601d60248201527f20596f7520617265206e6f7420696e207468652077686974656c6973740000006044820152606401610e5c565b60006119ee610c92565b9050601454846119fe610f993390565b611a08919061270e565b1115611a565760405162461bcd60e51b815260206004820152601b60248201527f4d6178204e4654205065722057616c6c657420657863656564656400000000006044820152606401610e5c565b60008411611a765760405162461bcd60e51b8152600401610e5c90612726565b600f54611a83858361270e565b1115611aa15760405162461bcd60e51b8152600401610e5c9061275d565b611ab6610f996008546001600160a01b031690565b601054611ac3919061270e565b611acd858361270e565b1115611b1b5760405162461bcd60e51b815260206004820152601b60248201527f467265654d696e7420737570706c792072656163686564206d617800000000006044820152606401610e5c565b60145484111561118c5760405162461bcd60e51b81526020600482015260186024820152771b585e081b5a5b9d081c195c88151e08195e18d95959195960421b6044820152606401610e5c565b611b70611bf9565b805161129d90600c90602084019061221e565b611b8b611bf9565b6001600160a01b038116611bf05760405162461bcd60e51b815260206004820152602660248201527f4f776e61626c653a206e6577206f776e657220697320746865207a65726f206160448201526564647265737360d01b6064820152608401610e5c565b6115be81611d7b565b6008546001600160a01b031633146112235760405162461bcd60e51b815260206004820181905260248201527f4f776e61626c653a2063616c6c6572206973206e6f7420746865206f776e65726044820152606401610e5c565b600081600a11158015611c67575060005482105b8015610a53575050600090815260046020526040902054600160e01b161590565b60008180600a11611cd857600054811015611cd857600081815260046020526040902054600160e01b8116611cd6575b80611781575060001901600081815260046020526040902054611cb8565b505b604051636f96cda160e11b815260040160405180910390fd5b60026009541415611d445760405162461bcd60e51b815260206004820152601f60248201527f5265656e7472616e637947756172643a207265656e7472616e742063616c6c006044820152606401610e5c565b6002600955565b600082611d588584611f71565b14949350505050565b61129d828260405180602001604052806000815250611fb6565b600880546001600160a01b038381166001600160a01b0319831681179093556040519116919082907f8be0079c531659141344cd1fd0a4f28419497f9722a3daafe3b4186f6b6457e090600090a35050565b604051630a85bd0160e11b81526000906001600160a01b0385169063150b7a0290611e02903390899088908890600401612864565b602060405180830381600087803b158015611e1c57600080fd5b505af1925050508015611e4c575060408051601f3d908101601f19168201909252611e49918101906128a1565b60015b611ea7573d808015611e7a576040519150601f19603f3d011682016040523d82523d6000602084013e611e7f565b606091505b508051611e9f576040516368d2bf6b60e11b815260040160405180910390fd5b805181602001fd5b6001600160e01b031916630a85bd0160e11b1490505b949350505050565b6060600a8054610a8390612686565b60606000611ee183612023565b600101905060008167ffffffffffffffff811115611f0157611f0161249a565b6040519080825280601f01601f191660200182016040528015611f2b576020820181803683370190505b5090508181016020015b600019016f181899199a1a9b1b9c1cb0b131b232b360811b600a86061a8153600a8504945084611f6457611f69565b611f35565b509392505050565b600081815b8451811015611f6957611fa282868381518110611f9557611f956128be565b60200260200101516120fb565b915080611fae816128d4565b915050611f76565b611fc08383612127565b6001600160a01b0383163b156111a1576000548281035b611fea6000868380600101945086611dcd565b612007576040516368d2bf6b60e11b815260040160405180910390fd5b818110611fd757816000541461201c57600080fd5b5050505050565b60008072184f03e93ff9f4daa797ed6e38ed64bf6a1f0160401b83106120625772184f03e93ff9f4daa797ed6e38ed64bf6a1f0160401b830492506040015b6d04ee2d6d415b85acef8100000000831061208e576d04ee2d6d415b85acef8100000000830492506020015b662386f26fc1000083106120ac57662386f26fc10000830492506010015b6305f5e10083106120c4576305f5e100830492506008015b61271083106120d857612710830492506004015b606483106120ea576064830492506002015b600a8310610a535760010192915050565b6000818310612117576000828152602084905260409020611781565b5060009182526020526040902090565b600054816121485760405163b562e8dd60e01b815260040160405180910390fd5b6001600160a01b03831660008181526005602090815260408083208054680100000000000000018802019055848352600490915281206001851460e11b4260a01b178317905582840190839083907fddf252ad1be2c89b69c2b068fc378daa952ba7f163c4a11628f55a4df523b3ef8180a4600183015b8181146121f757808360007fddf252ad1be2c89b69c2b068fc378daa952ba7f163c4a11628f55a4df523b3ef600080a46001016121bf565b508161221557604051622e076360e81b815260040160405180910390fd5b60005550505050565b82805461222a90612686565b90600052602060002090601f01602090048101928261224c5760008555612292565b82601f1061226557805160ff1916838001178555612292565b82800160010185558215612292579182015b82811115612292578251825591602001919060010190612277565b5061229e9291506122a2565b5090565b5b8082111561229e57600081556001016122a3565b6000602082840312156122c957600080fd5b5035919050565b6001600160e01b0319811681146115be57600080fd5b6000602082840312156122f857600080fd5b8135611781816122d0565b8035801515811461231357600080fd5b919050565b60006020828403121561232a57600080fd5b61178182612303565b60005b8381101561234e578181015183820152602001612336565b838111156116055750506000910152565b60008151808452612377816020860160208601612333565b601f01601f19169290920160200192915050565b602081526000611781602083018461235f565b80356001600160a01b038116811461231357600080fd5b600080604083850312156123c857600080fd5b6123d18361239e565b946020939093013593505050565b6000806000606084860312156123f457600080fd5b6123fd8461239e565b925061240b6020850161239e565b9150604084013590509250925092565b60008060006040848603121561243057600080fd5b83359250602084013567ffffffffffffffff8082111561244f57600080fd5b818601915086601f83011261246357600080fd5b81358181111561247257600080fd5b8760208260051b850101111561248757600080fd5b6020830194508093505050509250925092565b634e487b7160e01b600052604160045260246000fd5b600067ffffffffffffffff808411156124cb576124cb61249a565b604051601f8501601f19908116603f011681019082821181831017156124f3576124f361249a565b8160405280935085815286868601111561250c57600080fd5b858560208301376000602087830101525050509392505050565b60006020828403121561253857600080fd5b813567ffffffffffffffff81111561254f57600080fd5b8201601f8101841361256057600080fd5b611ebd848235602084016124b0565b60006020828403121561258157600080fd5b6117818261239e565b6000806040838503121561259d57600080fd5b6125a68361239e565b91506125b460208401612303565b90509250929050565b600080600080608085870312156125d357600080fd5b6125dc8561239e565b93506125ea6020860161239e565b925060408501359150606085013567ffffffffffffffff81111561260d57600080fd5b8501601f8101871361261e57600080fd5b61262d878235602084016124b0565b91505092959194509250565b6000806040838503121561264c57600080fd5b823591506125b46020840161239e565b6000806040838503121561266f57600080fd5b6126788361239e565b91506125b46020840161239e565b600181811c9082168061269a57607f821691505b602082108114156126bb57634e487b7160e01b600052602260045260246000fd5b50919050565b60208082526017908201527f6f6f707320636f6e747261637420697320706175736564000000000000000000604082015260600190565b634e487b7160e01b600052601160045260246000fd5b60008219821115612721576127216126f8565b500190565b6020808252601b908201527f6e65656420746f206d696e74206174206c656173742031204e46540000000000604082015260600190565b6020808252600a908201526915d94814dbdb191bdd5d60b21b604082015260600190565b600081600019048311821515161561279b5761279b6126f8565b500290565b6000845160206127b38285838a01612333565b8551918401916127c68184848a01612333565b8554920191600090600181811c90808316806127e357607f831692505b85831081141561280157634e487b7160e01b85526022600452602485fd5b808015612815576001811461282657612853565b60ff19851688528388019550612853565b60008b81526020902060005b8581101561284b5781548a820152908401908801612832565b505083880195505b50939b9a5050505050505050505050565b6001600160a01b03858116825284166020820152604081018390526080606082018190526000906128979083018461235f565b9695505050505050565b6000602082840312156128b357600080fd5b8151611781816122d0565b634e487b7160e01b600052603260045260246000fd5b60006000198214156128e8576128e86126f8565b506001019056fea2646970667358221220979a541d303e6e5945f58376c24ca72c5a223e5b1590eb0641a0f29c594f353b64736f6c63430008090033",
  "linkReferences": {},
  "deployedLinkReferences": {}
}